{
  "contractName": "Counter",
  "abi": [
    {
      "inputs": [],
      "name": "count",
      "outputs": [
        {
          "internalType": "uint256",
          "name": "",
          "type": "uint256"
        }
      ],
      "stateMutability": "view",
      "type": "function",
      "constant": true
    },
    {
      "inputs": [],
      "name": "inc",
      "outputs": [],
      "stateMutability": "nonpayable",
      "type": "function"
    },
    {
      "inputs": [],
      "name": "dec",
      "outputs": [],
      "stateMutability": "nonpayable",
      "type": "function"
    }
  ],
  "bytecode": "0x608060405234801561001057600080fd5b506101d7806100206000396000f3fe608060405234801561001057600080fd5b50600436106100415760003560e01c806306661abd14610046578063371303c014610064578063b3bcfa821461006e575b600080fd5b61004e610078565b60405161005b91906100c3565b60405180910390f35b61006c61007e565b005b610076610099565b005b60005481565b600160008082825461009091906100de565b92505081905550565b60016000808282546100ab9190610134565b92505081905550565b6100bd81610168565b82525050565b60006020820190506100d860008301846100b4565b92915050565b60006100e982610168565b91506100f483610168565b9250827fffffffffffffffffffffffffffffffffffffffffffffffffffffffffffffffff0382111561012957610128610172565b5b828201905092915050565b600061013f82610168565b915061014a83610168565b92508282101561015d5761015c610172565b5b828203905092915050565b6000819050919050565b7f4e487b7100000000000000000000000000000000000000000000000000000000600052601160045260246000fdfea2646970667358221220251fa2e826a63f4a29698de74edd1028cad3d883e1fb7e829c5432488008475764736f6c63430008000033",
  "immutableReferences": {},
  "source": "// SPDX-License-Identifier: MIT\r\npragma solidity 0.8.0;\r\ncontract Counter{\r\n    uint256 public count;\r\n\r\n    function inc() public{\r\n        count += 1;\r\n    }\r\n\r\n    function dec() public{\r\n        count -= 1;\r\n    }\r\n}",
  "sourcePath": "C:\\Users\\User\\Desktop\\New project 1\\contracts\\Counter.sol",
  "compiler": {
    "name": "solc",
    "version": "0.8.0+commit.c7dfd78e.Emscripten.clang"
  },
  "schemaVersion": "3.4.16",
  "updatedAt": "2024-03-31T19:26:47.618Z",
  "networkType": "ethereum",
  "devdoc": {
    "kind": "dev",
    "methods": {},
    "version": 1
  },
  "userdoc": {
    "kind": "user",
    "methods": {},
    "version": 1
  }
}